{
  "_format": "hh-sol-artifact-1",
  "contractName": "Verification",
  "sourceName": "contracts/verificationPortal.sol",
  "abi": [
    {
      "anonymous": false,
      "inputs": [
        {
          "indexed": true,
          "internalType": "address",
          "name": "university",
          "type": "address"
        }
      ],
      "name": "UniversityRegistered",
      "type": "event"
    },
    {
      "anonymous": false,
      "inputs": [
        {
          "indexed": true,
          "internalType": "address",
          "name": "university",
          "type": "address"
        }
      ],
      "name": "UniversityRemoved",
      "type": "event"
    },
    {
      "anonymous": false,
      "inputs": [
        {
          "indexed": true,
          "internalType": "uint256",
          "name": "degreeId",
          "type": "uint256"
        },
        {
          "indexed": true,
          "internalType": "address",
          "name": "student",
          "type": "address"
        },
        {
          "indexed": true,
          "internalType": "address",
          "name": "university",
          "type": "address"
        }
      ],
      "name": "degreeIssued",
      "type": "event"
    },
    {
      "anonymous": false,
      "inputs": [
        {
          "indexed": true,
          "internalType": "uint256",
          "name": "degreeId",
          "type": "uint256"
        },
        {
          "indexed": true,
          "internalType": "address",
          "name": "student",
          "type": "address"
        },
        {
          "indexed": true,
          "internalType": "address",
          "name": "university",
          "type": "address"
        }
      ],
      "name": "degreeRevoked",
      "type": "event"
    },
    {
      "inputs": [],
      "name": "degreeCount",
      "outputs": [
        {
          "internalType": "uint256",
          "name": "",
          "type": "uint256"
        }
      ],
      "stateMutability": "view",
      "type": "function"
    },
    {
      "inputs": [
        {
          "internalType": "uint256",
          "name": "",
          "type": "uint256"
        }
      ],
      "name": "degrees",
      "outputs": [
        {
          "internalType": "uint256",
          "name": "id",
          "type": "uint256"
        },
        {
          "internalType": "address",
          "name": "student",
          "type": "address"
        },
        {
          "internalType": "address",
          "name": "issuingUniversity",
          "type": "address"
        },
        {
          "internalType": "string",
          "name": "degreeName",
          "type": "string"
        },
        {
          "internalType": "string",
          "name": "major",
          "type": "string"
        },
        {
          "internalType": "uint256",
          "name": "dateIssued",
          "type": "uint256"
        },
        {
          "internalType": "bool",
          "name": "isValid",
          "type": "bool"
        }
      ],
      "stateMutability": "view",
      "type": "function"
    },
    {
      "inputs": [
        {
          "internalType": "address",
          "name": "_student",
          "type": "address"
        }
      ],
      "name": "getStudentDegrees",
      "outputs": [
        {
          "internalType": "uint256[]",
          "name": "",
          "type": "uint256[]"
        }
      ],
      "stateMutability": "view",
      "type": "function"
    },
    {
      "inputs": [],
      "name": "getUniversities",
      "outputs": [
        {
          "internalType": "address[]",
          "name": "",
          "type": "address[]"
        }
      ],
      "stateMutability": "view",
      "type": "function"
    },
    {
      "inputs": [
        {
          "internalType": "uint256",
          "name": "_degreeId",
          "type": "uint256"
        }
      ],
      "name": "isDegreeValid",
      "outputs": [
        {
          "internalType": "bool",
          "name": "",
          "type": "bool"
        }
      ],
      "stateMutability": "view",
      "type": "function"
    },
    {
      "inputs": [
        {
          "internalType": "address",
          "name": "_address",
          "type": "address"
        }
      ],
      "name": "isUniversity",
      "outputs": [
        {
          "internalType": "bool",
          "name": "",
          "type": "bool"
        }
      ],
      "stateMutability": "view",
      "type": "function"
    },
    {
      "inputs": [
        {
          "internalType": "address",
          "name": "_student",
          "type": "address"
        },
        {
          "internalType": "string",
          "name": "_degreeName",
          "type": "string"
        },
        {
          "internalType": "string",
          "name": "_major",
          "type": "string"
        }
      ],
      "name": "issueDegree",
      "outputs": [],
      "stateMutability": "nonpayable",
      "type": "function"
    },
    {
      "inputs": [],
      "name": "owner",
      "outputs": [
        {
          "internalType": "address",
          "name": "",
          "type": "address"
        }
      ],
      "stateMutability": "view",
      "type": "function"
    },
    {
      "inputs": [
        {
          "internalType": "address",
          "name": "_university",
          "type": "address"
        }
      ],
      "name": "registerUniversity",
      "outputs": [],
      "stateMutability": "nonpayable",
      "type": "function"
    },
    {
      "inputs": [
        {
          "internalType": "address",
          "name": "_university",
          "type": "address"
        }
      ],
      "name": "removeUniversity",
      "outputs": [],
      "stateMutability": "nonpayable",
      "type": "function"
    },
    {
      "inputs": [
        {
          "internalType": "uint256",
          "name": "_degreeId",
          "type": "uint256"
        }
      ],
      "name": "revokeDegree",
      "outputs": [],
      "stateMutability": "nonpayable",
      "type": "function"
    },
    {
      "inputs": [
        {
          "internalType": "address",
          "name": "",
          "type": "address"
        },
        {
          "internalType": "uint256",
          "name": "",
          "type": "uint256"
        }
      ],
      "name": "studentDegrees",
      "outputs": [
        {
          "internalType": "uint256",
          "name": "",
          "type": "uint256"
        }
      ],
      "stateMutability": "view",
      "type": "function"
    },
    {
      "inputs": [
        {
          "internalType": "address",
          "name": "",
          "type": "address"
        }
      ],
      "name": "universities",
      "outputs": [
        {
          "internalType": "bool",
          "name": "",
          "type": "bool"
        }
      ],
      "stateMutability": "view",
      "type": "function"
    },
    {
      "inputs": [
        {
          "internalType": "uint256",
          "name": "",
          "type": "uint256"
        }
      ],
      "name": "universityList",
      "outputs": [
        {
          "internalType": "address",
          "name": "",
          "type": "address"
        }
      ],
      "stateMutability": "view",
      "type": "function"
    },
    {
      "inputs": [
        {
          "internalType": "uint256",
          "name": "_degreeId",
          "type": "uint256"
        }
      ],
      "name": "verifyDegree",
      "outputs": [
        {
          "internalType": "uint256",
          "name": "id",
          "type": "uint256"
        },
        {
          "internalType": "address",
          "name": "student",
          "type": "address"
        },
        {
          "internalType": "address",
          "name": "issuingUniversity",
          "type": "address"
        },
        {
          "internalType": "string",
          "name": "degreeName",
          "type": "string"
        },
        {
          "internalType": "string",
          "name": "major",
          "type": "string"
        },
        {
          "internalType": "uint256",
          "name": "dateIssued",
          "type": "uint256"
        },
        {
          "internalType": "bool",
          "name": "isValid",
          "type": "bool"
        }
      ],
      "stateMutability": "view",
      "type": "function"
    }
  ],
  "bytecode": "0x608060405234801561001057600080fd5b50336000806101000a81548173ffffffffffffffffffffffffffffffffffffffff021916908373ffffffffffffffffffffffffffffffffffffffff160217905550612530806100606000396000f3fe608060405234801561001057600080fd5b50600436106100f55760003560e01c806381f1c3bc11610097578063c5c8771011610066578063c5c87710146102a4578063e1b10050146102c0578063f0995560146102f0578063f48a38cd14610320576100f5565b806381f1c3bc146102025780638da5cb5b14610238578063b934282214610256578063b9730cde14610274576100f5565b806328f54b2f116100d357806328f54b2f1461017c5780632faff4ad146101985780633660096b146101c85780634851cea5146101e6576100f5565b80630433e1b6146100fa57806310d6ada11461012a57806320f722a314610146575b600080fd5b610114600480360381019061010f9190611688565b610350565b604051610121919061177d565b60405180910390f35b610144600480360381019061013f9190611688565b6103e7565b005b610160600480360381019061015b91906117cb565b610672565b60405161017397969594939291906118c1565b60405180910390f35b61019660048036038101906101919190611688565b61092c565b005b6101b260048036038101906101ad91906117cb565b610c60565b6040516101bf919061193e565b60405180910390f35b6101d0610cdd565b6040516101dd9190611959565b60405180910390f35b61020060048036038101906101fb91906117cb565b610ce3565b005b61021c600480360381019061021791906117cb565b610f91565b60405161022f97969594939291906118c1565b60405180910390f35b610240611130565b60405161024d9190611974565b60405180910390f35b61025e611154565b60405161026b9190611a4d565b60405180910390f35b61028e60048036038101906102899190611688565b6111e2565b60405161029b919061193e565b60405180910390f35b6102be60048036038101906102b99190611ba4565b611238565b005b6102da60048036038101906102d591906117cb565b611586565b6040516102e79190611974565b60405180910390f35b61030a60048036038101906103059190611688565b6115c5565b604051610317919061193e565b60405180910390f35b61033a60048036038101906103359190611c2f565b6115e5565b6040516103479190611959565b60405180910390f35b6060600560008373ffffffffffffffffffffffffffffffffffffffff1673ffffffffffffffffffffffffffffffffffffffff1681526020019081526020016000208054806020026020016040519081016040528092919081815260200182805480156103db57602002820191906000526020600020905b8154815260200190600101908083116103c7575b50505050509050919050565b60008054906101000a900473ffffffffffffffffffffffffffffffffffffffff1673ffffffffffffffffffffffffffffffffffffffff163373ffffffffffffffffffffffffffffffffffffffff1614610475576040517f08c379a000000000000000000000000000000000000000000000000000000000815260040161046c90611cbb565b60405180910390fd5b600073ffffffffffffffffffffffffffffffffffffffff168173ffffffffffffffffffffffffffffffffffffffff16036104e4576040517f08c379a00000000000000000000000000000000000000000000000000000000081526004016104db90611d27565b60405180910390fd5b600260008273ffffffffffffffffffffffffffffffffffffffff1673ffffffffffffffffffffffffffffffffffffffff16815260200190815260200160002060009054906101000a900460ff1615610571576040517f08c379a000000000000000000000000000000000000000000000000000000000815260040161056890611d93565b60405180910390fd5b6001600260008373ffffffffffffffffffffffffffffffffffffffff1673ffffffffffffffffffffffffffffffffffffffff16815260200190815260200160002060006101000a81548160ff0219169083151502179055506001819080600181540180825580915050600190039060005260206000200160009091909190916101000a81548173ffffffffffffffffffffffffffffffffffffffff021916908373ffffffffffffffffffffffffffffffffffffffff1602179055508073ffffffffffffffffffffffffffffffffffffffff167f0b34a266c110d2a9da6960d9cc9be6a0f8bcf586fae9f4d3d392d5433f730a8860405160405180910390a250565b600080600060608060008060008811801561068f57506003548811155b6106ce576040517f08c379a00000000000000000000000000000000000000000000000000000000081526004016106c590611dff565b60405180910390fd5b6000600460008a81526020019081526020016000206040518060e0016040529081600082015481526020016001820160009054906101000a900473ffffffffffffffffffffffffffffffffffffffff1673ffffffffffffffffffffffffffffffffffffffff1673ffffffffffffffffffffffffffffffffffffffff1681526020016002820160009054906101000a900473ffffffffffffffffffffffffffffffffffffffff1673ffffffffffffffffffffffffffffffffffffffff1673ffffffffffffffffffffffffffffffffffffffff1681526020016003820180546107b490611e4e565b80601f01602080910402602001604051908101604052809291908181526020018280546107e090611e4e565b801561082d5780601f106108025761010080835404028352916020019161082d565b820191906000526020600020905b81548152906001019060200180831161081057829003601f168201915b5050505050815260200160048201805461084690611e4e565b80601f016020809104026020016040519081016040528092919081815260200182805461087290611e4e565b80156108bf5780601f10610894576101008083540402835291602001916108bf565b820191906000526020600020905b8154815290600101906020018083116108a257829003601f168201915b50505050508152602001600582015481526020016006820160009054906101000a900460ff1615151515815250509050806000015181602001518260400151836060015184608001518560a001518660c00151975097509750975097509750975050919395979092949650565b60008054906101000a900473ffffffffffffffffffffffffffffffffffffffff1673ffffffffffffffffffffffffffffffffffffffff163373ffffffffffffffffffffffffffffffffffffffff16146109ba576040517f08c379a00000000000000000000000000000000000000000000000000000000081526004016109b190611cbb565b60405180910390fd5b600260008273ffffffffffffffffffffffffffffffffffffffff1673ffffffffffffffffffffffffffffffffffffffff16815260200190815260200160002060009054906101000a900460ff16610a46576040517f08c379a0000000000000000000000000000000000000000000000000000000008152600401610a3d90611ecb565b60405180910390fd5b600260008273ffffffffffffffffffffffffffffffffffffffff1673ffffffffffffffffffffffffffffffffffffffff16815260200190815260200160002060006101000a81549060ff021916905560005b600180549050811015610c19578173ffffffffffffffffffffffffffffffffffffffff1660018281548110610ad057610acf611eeb565b5b9060005260206000200160009054906101000a900473ffffffffffffffffffffffffffffffffffffffff1673ffffffffffffffffffffffffffffffffffffffff1603610c0c576001808080549050610b289190611f49565b81548110610b3957610b38611eeb565b5b9060005260206000200160009054906101000a900473ffffffffffffffffffffffffffffffffffffffff1660018281548110610b7857610b77611eeb565b5b9060005260206000200160006101000a81548173ffffffffffffffffffffffffffffffffffffffff021916908373ffffffffffffffffffffffffffffffffffffffff1602179055506001805480610bd257610bd1611f7d565b5b6001900381819060005260206000200160006101000a81549073ffffffffffffffffffffffffffffffffffffffff02191690559055610c19565b8080600101915050610a98565b508073ffffffffffffffffffffffffffffffffffffffff167f2ad4ce55dbf197589d24f6a11ebec345d1a50286aae2e4cc6f69c7aad1fadde060405160405180910390a250565b60008082118015610c7357506003548211155b610cb2576040517f08c379a0000000000000000000000000000000000000000000000000000000008152600401610ca990611ff8565b60405180910390fd5b6004600083815260200190815260200160002060060160009054906101000a900460ff169050919050565b60035481565b60011515600260003373ffffffffffffffffffffffffffffffffffffffff1673ffffffffffffffffffffffffffffffffffffffff16815260200190815260200160002060009054906101000a900460ff16151514610d76576040517f08c379a0000000000000000000000000000000000000000000000000000000008152600401610d6d90612064565b60405180910390fd5b600081118015610d8857506003548111155b610dc7576040517f08c379a0000000000000000000000000000000000000000000000000000000008152600401610dbe906120d0565b60405180910390fd5b3373ffffffffffffffffffffffffffffffffffffffff166004600083815260200190815260200160002060020160009054906101000a900473ffffffffffffffffffffffffffffffffffffffff1673ffffffffffffffffffffffffffffffffffffffff1614610e6b576040517f08c379a0000000000000000000000000000000000000000000000000000000008152600401610e629061213c565b60405180910390fd5b6004600082815260200190815260200160002060060160009054906101000a900460ff16610ece576040517f08c379a0000000000000000000000000000000000000000000000000000000008152600401610ec5906121a8565b60405180910390fd5b60006004600083815260200190815260200160002060060160006101000a81548160ff0219169083151502179055503373ffffffffffffffffffffffffffffffffffffffff166004600083815260200190815260200160002060010160009054906101000a900473ffffffffffffffffffffffffffffffffffffffff1673ffffffffffffffffffffffffffffffffffffffff16827f234cf2218c6f1ab8527130a9ac79f5f58b6d4fb60d93c8ff7e5713e134b9e52160405160405180910390a450565b60046020528060005260406000206000915090508060000154908060010160009054906101000a900473ffffffffffffffffffffffffffffffffffffffff16908060020160009054906101000a900473ffffffffffffffffffffffffffffffffffffffff169080600301805461100690611e4e565b80601f016020809104026020016040519081016040528092919081815260200182805461103290611e4e565b801561107f5780601f106110545761010080835404028352916020019161107f565b820191906000526020600020905b81548152906001019060200180831161106257829003601f168201915b50505050509080600401805461109490611e4e565b80601f01602080910402602001604051908101604052809291908181526020018280546110c090611e4e565b801561110d5780601f106110e25761010080835404028352916020019161110d565b820191906000526020600020905b8154815290600101906020018083116110f057829003601f168201915b5050505050908060050154908060060160009054906101000a900460ff16905087565b60008054906101000a900473ffffffffffffffffffffffffffffffffffffffff1681565b606060018054806020026020016040519081016040528092919081815260200182805480156111d857602002820191906000526020600020905b8160009054906101000a900473ffffffffffffffffffffffffffffffffffffffff1673ffffffffffffffffffffffffffffffffffffffff168152602001906001019080831161118e575b5050505050905090565b6000600260008373ffffffffffffffffffffffffffffffffffffffff1673ffffffffffffffffffffffffffffffffffffffff16815260200190815260200160002060009054906101000a900460ff169050919050565b60011515600260003373ffffffffffffffffffffffffffffffffffffffff1673ffffffffffffffffffffffffffffffffffffffff16815260200190815260200160002060009054906101000a900460ff161515146112cb576040517f08c379a00000000000000000000000000000000000000000000000000000000081526004016112c290612064565b60405180910390fd5b600073ffffffffffffffffffffffffffffffffffffffff168373ffffffffffffffffffffffffffffffffffffffff160361133a576040517f08c379a000000000000000000000000000000000000000000000000000000000815260040161133190612214565b60405180910390fd5b6003600081548092919061134d90612234565b91905055506040518060e0016040528060035481526020018473ffffffffffffffffffffffffffffffffffffffff1681526020013373ffffffffffffffffffffffffffffffffffffffff168152602001838152602001828152602001428152602001600115158152506004600060035481526020019081526020016000206000820151816000015560208201518160010160006101000a81548173ffffffffffffffffffffffffffffffffffffffff021916908373ffffffffffffffffffffffffffffffffffffffff16021790555060408201518160020160006101000a81548173ffffffffffffffffffffffffffffffffffffffff021916908373ffffffffffffffffffffffffffffffffffffffff16021790555060608201518160030190816114789190612428565b50608082015181600401908161148e9190612428565b5060a0820151816005015560c08201518160060160006101000a81548160ff021916908315150217905550905050600560008473ffffffffffffffffffffffffffffffffffffffff1673ffffffffffffffffffffffffffffffffffffffff16815260200190815260200160002060035490806001815401808255809150506001900390600052602060002001600090919091909150553373ffffffffffffffffffffffffffffffffffffffff168373ffffffffffffffffffffffffffffffffffffffff166003547fdea968bf604ce82ed2521b3fad17ceaa887b8e533ac68a7678395f0f38c0ddb660405160405180910390a4505050565b6001818154811061159657600080fd5b906000526020600020016000915054906101000a900473ffffffffffffffffffffffffffffffffffffffff1681565b60026020528060005260406000206000915054906101000a900460ff1681565b6005602052816000526040600020818154811061160157600080fd5b90600052602060002001600091509150505481565b6000604051905090565b600080fd5b600080fd5b600073ffffffffffffffffffffffffffffffffffffffff82169050919050565b60006116558261162a565b9050919050565b6116658161164a565b811461167057600080fd5b50565b6000813590506116828161165c565b92915050565b60006020828403121561169e5761169d611620565b5b60006116ac84828501611673565b91505092915050565b600081519050919050565b600082825260208201905092915050565b6000819050602082019050919050565b6000819050919050565b6116f4816116e1565b82525050565b600061170683836116eb565b60208301905092915050565b6000602082019050919050565b600061172a826116b5565b61173481856116c0565b935061173f836116d1565b8060005b8381101561177057815161175788826116fa565b975061176283611712565b925050600181019050611743565b5085935050505092915050565b60006020820190508181036000830152611797818461171f565b905092915050565b6117a8816116e1565b81146117b357600080fd5b50565b6000813590506117c58161179f565b92915050565b6000602082840312156117e1576117e0611620565b5b60006117ef848285016117b6565b91505092915050565b611801816116e1565b82525050565b6118108161164a565b82525050565b600081519050919050565b600082825260208201905092915050565b60005b83811015611850578082015181840152602081019050611835565b60008484015250505050565b6000601f19601f8301169050919050565b600061187882611816565b6118828185611821565b9350611892818560208601611832565b61189b8161185c565b840191505092915050565b60008115159050919050565b6118bb816118a6565b82525050565b600060e0820190506118d6600083018a6117f8565b6118e36020830189611807565b6118f06040830188611807565b8181036060830152611902818761186d565b90508181036080830152611916818661186d565b905061192560a08301856117f8565b61193260c08301846118b2565b98975050505050505050565b600060208201905061195360008301846118b2565b92915050565b600060208201905061196e60008301846117f8565b92915050565b60006020820190506119896000830184611807565b92915050565b600081519050919050565b600082825260208201905092915050565b6000819050602082019050919050565b6119c48161164a565b82525050565b60006119d683836119bb565b60208301905092915050565b6000602082019050919050565b60006119fa8261198f565b611a04818561199a565b9350611a0f836119ab565b8060005b83811015611a40578151611a2788826119ca565b9750611a32836119e2565b925050600181019050611a13565b5085935050505092915050565b60006020820190508181036000830152611a6781846119ef565b905092915050565b600080fd5b600080fd5b7f4e487b7100000000000000000000000000000000000000000000000000000000600052604160045260246000fd5b611ab18261185c565b810181811067ffffffffffffffff82111715611ad057611acf611a79565b5b80604052505050565b6000611ae3611616565b9050611aef8282611aa8565b919050565b600067ffffffffffffffff821115611b0f57611b0e611a79565b5b611b188261185c565b9050602081019050919050565b82818337600083830152505050565b6000611b47611b4284611af4565b611ad9565b905082815260208101848484011115611b6357611b62611a74565b5b611b6e848285611b25565b509392505050565b600082601f830112611b8b57611b8a611a6f565b5b8135611b9b848260208601611b34565b91505092915050565b600080600060608486031215611bbd57611bbc611620565b5b6000611bcb86828701611673565b935050602084013567ffffffffffffffff811115611bec57611beb611625565b5b611bf886828701611b76565b925050604084013567ffffffffffffffff811115611c1957611c18611625565b5b611c2586828701611b76565b9150509250925092565b60008060408385031215611c4657611c45611620565b5b6000611c5485828601611673565b9250506020611c65858286016117b6565b9150509250929050565b7f6e6f742074686520636f6e7472616374206f776e657200000000000000000000600082015250565b6000611ca5601683611821565b9150611cb082611c6f565b602082019050919050565b60006020820190508181036000830152611cd481611c98565b9050919050565b7f696e76616c696420616464726573730000000000000000000000000000000000600082015250565b6000611d11600f83611821565b9150611d1c82611cdb565b602082019050919050565b60006020820190508181036000830152611d4081611d04565b9050919050565b7f616c726561647920726567697374657265640000000000000000000000000000600082015250565b6000611d7d601283611821565b9150611d8882611d47565b602082019050919050565b60006020820190508181036000830152611dac81611d70565b9050919050565b7f44656772656520646f6573206e6f742065786973740000000000000000000000600082015250565b6000611de9601583611821565b9150611df482611db3565b602082019050919050565b60006020820190508181036000830152611e1881611ddc565b9050919050565b7f4e487b7100000000000000000000000000000000000000000000000000000000600052602260045260246000fd5b60006002820490506001821680611e6657607f821691505b602082108103611e7957611e78611e1f565b5b50919050565b7f4e6f742061207265676973746572656420756e69766572736974790000000000600082015250565b6000611eb5601b83611821565b9150611ec082611e7f565b602082019050919050565b60006020820190508181036000830152611ee481611ea8565b9050919050565b7f4e487b7100000000000000000000000000000000000000000000000000000000600052603260045260246000fd5b7f4e487b7100000000000000000000000000000000000000000000000000000000600052601160045260246000fd5b6000611f54826116e1565b9150611f5f836116e1565b9250828203905081811115611f7757611f76611f1a565b5b92915050565b7f4e487b7100000000000000000000000000000000000000000000000000000000600052603160045260246000fd5b7f64656772656520646f6573206e6f742065786973742000000000000000000000600082015250565b6000611fe2601683611821565b9150611fed82611fac565b602082019050919050565b6000602082019050818103600083015261201181611fd5565b9050919050565b7f6e6f742072656769737465726564000000000000000000000000000000000000600082015250565b600061204e600e83611821565b915061205982612018565b602082019050919050565b6000602082019050818103600083015261207d81612041565b9050919050565b7f64656772656520646f6573206e6f742065786973740000000000000000000000600082015250565b60006120ba601583611821565b91506120c582612084565b602082019050919050565b600060208201905081810360008301526120e9816120ad565b9050919050565b7f6e6f7420796f7572206465677265650000000000000000000000000000000000600082015250565b6000612126600f83611821565b9150612131826120f0565b602082019050919050565b6000602082019050818103600083015261215581612119565b9050919050565b7f616c7265616479207265766f6b65640000000000000000000000000000000000600082015250565b6000612192600f83611821565b915061219d8261215c565b602082019050919050565b600060208201905081810360008301526121c181612185565b9050919050565b7f6e6f7420612073747564656e7400000000000000000000000000000000000000600082015250565b60006121fe600d83611821565b9150612209826121c8565b602082019050919050565b6000602082019050818103600083015261222d816121f1565b9050919050565b600061223f826116e1565b91507fffffffffffffffffffffffffffffffffffffffffffffffffffffffffffffffff820361227157612270611f1a565b5b600182019050919050565b60008190508160005260206000209050919050565b60006020601f8301049050919050565b600082821b905092915050565b6000600883026122de7fffffffffffffffffffffffffffffffffffffffffffffffffffffffffffffffff826122a1565b6122e886836122a1565b95508019841693508086168417925050509392505050565b6000819050919050565b600061232561232061231b846116e1565b612300565b6116e1565b9050919050565b6000819050919050565b61233f8361230a565b61235361234b8261232c565b8484546122ae565b825550505050565b600090565b61236861235b565b612373818484612336565b505050565b5b818110156123975761238c600082612360565b600181019050612379565b5050565b601f8211156123dc576123ad8161227c565b6123b684612291565b810160208510156123c5578190505b6123d96123d185612291565b830182612378565b50505b505050565b600082821c905092915050565b60006123ff600019846008026123e1565b1980831691505092915050565b600061241883836123ee565b9150826002028217905092915050565b61243182611816565b67ffffffffffffffff81111561244a57612449611a79565b5b6124548254611e4e565b61245f82828561239b565b600060209050601f8311600181146124925760008415612480578287015190505b61248a858261240c565b8655506124f2565b601f1984166124a08661227c565b60005b828110156124c8578489015182556001820191506020850194506020810190506124a3565b868310156124e557848901516124e1601f8916826123ee565b8355505b6001600288020188555050505b50505050505056fea26469706673582212207938bd0465f4980a2dd76ff5b630f74bc3fcca0c8f1b87bf8ee36f685d1a85c164736f6c63430008180033",
  "linkReferences": {},
  "deployedLinkReferences": {}
}